:02000004FFFFFC
:10000000731040307310403437810000130181FFBA
:10001000930200003753000013030350638862000B
:1000200023B00200938282006FF05FFF970200000E
:10003000938242691303000093030000630C730072
:1000400003BE02002330C3019382820013038300A6
:100050006FF0DFFE970200009382C201739052306E
:10006000EF00205A730050106FF0DFFF1300000004
:10007000F322203463C402006FF0DFFE73002030EF
:1000800000000000000000008D47FA07094798C3F0
:10009000411102C632479307300663CAE7001307CF
:1000A0003006B24785273EC6B247E35CF7FE8D4770
:1000B000FA0723A0070041018280B707040063ED1F
:1000C000B7020D467A069D25B2869BD5350081473D
:1000D000130606029386460291CD18611CC22105C3
:1000E0001B08070023A006011CC2019798C28527A0
:1000F000E395F5FE014582807D5582809B958500C4
:100100000D898D47C98DFA0781258CC782808D475F
:10011000FA073E87C8C385471CC382808D46FA060E
:1001200036860147B10619A0636AE5009C4205279F
:10013000898BFDDB23200600014582807D5582806E
:100140008D47FA07C847058982808D47FA07C84757
:100150001B55250042154191828085C58D46939798
:100160000502FA0693D5E70193860604AA879D8EB9
:100170002E953387F6001843910723AEE7FEE39AE6
:10018000A7FE82808D47FA07D8478D46FA069377F7
:10019000270081CB8547375700002300F75023A065
:1001A00006008280B7570000238007508147B7566A
:1001B00000009386065031A07300501085276367B6
:1001C000F50003C706006DDB014582807D55828006
:1001D000B367C7009D8BA9EBBB07B602011122E8EC
:1001E000368526E44AE006ECC2844689BB05C70290
:1001F0009BD76700139407034190EFF01FEC1DE5B8
:10020000CA852685EFF09FEF2285EFF05FF03795E6
:10021000980013050568EFF07FF019E9E260426489
:10022000A2640269056182807D5582807955FDB79F
:100230007555EDB76D71032F0112B282CAF9DAE973
:100240004689032B81111B161F003B8E05413B8302
:1002500022413B03C3003B0ECE0066FD6AF9BB5C46
:100260006303A6FDBE84DEE5E2E1C28BD6EDAA8380
:1002700006E6856EAE880348811203460113B68FE9
:10028000BA853B5D6E031B8C1C00BB07D9021B03A8
:100290001D00BB877703BB0A83031B850700BB8751
:1002A000570363EDFE1E630C031CBB065F029B80BD
:1002B0000200D2F13B8AEB4122E2CEF56EF5568484
:1002C00056FCAEE0BB82F203BB06D040BB86E641E3
:1002D000C28AB28981470147814EBB0DE94181281D
:1002E0003B8E620337430000130303402AF8E28584
:1002F000A6E45E86528872F0BB86F6033B0EFB03D3
:10030000F5C93B8AE741368552F4EAE8BAF0B6F41B
:10031000EE8B81443B0AF800AEEC3E8DFA865687A0
:10032000A2DA5DC6227CAA852AE5BB8A2B41E6FCBF
:1003300016EC26E172E95AED3A85568E2E8B1B0497
:100340000C00630B09062EE86A8FB285CA84638CA1
:100350000F04B36C8E011B0D0E003B89DF01768606
:10036000812CF68772E46A87131E0602135E0E0262
:100370001A9E9B0E160081426350140363CE0C003C
:100380003B0DFB403B0DCD00021D135D0D021E9D7C
:100390006354170083020D0023005E007686E31588
:1003A000D9FD226ECA8E052E3B8B6F01E3117EFBB9
:1003B0002E86C2657A8D2689E267052CBD9DE31ED7
:1003C0008AF72A87E67CE2628A644A6E6A6B2A654B
:1003D0009B8514003B05C501BB0B7B0163849C001E
:1003E000AE8481B7EA87368FBA8AE665466DA6760F
:1003F0000677565482741B051700BB07FB00A59EA9
:100400006304ED002A87EDBD42758665A6645688B3
:10041000E27AAE862A86CE88930700402687D68564
:100420003745000013050540EFF09FDA21E53B0456
:1004300094029B07040099CF52670214019093061F
:100440000040B3078700904205079106A30FC7FE3F
:10045000E31BF7FE1264AE790E7AAA7D0145B26005
:10046000EE744E79EE6A4E6BAE6B0E6CEA7C4A7D92
:10047000516182801264AE790E7AAA7DCDB7B288BE
:10048000AE862A86930700402687814537450000BF
:1004900013050540EFF0DFD371D1D1B77D55C1B75A
:1004A00079713368B60006F422F013787800631D82
:1004B000080426ECAE84BB05B60236854AE84EE455
:1004C0003E89BA892E84EFF05FBF29E1CA85EFF03B
:1004D000FFC21B55640042154191EFF05FC3379591
:1004E000980013050568EFF07FC32A840DE5BB85EE
:1004F00094024E85EFF07FC6E2644269A269A27061
:1005000022850274456182807D54D5BFE2644269D0
:10051000A2697954EDB7E2644269A2697554C5B71E
:1005200065C29B82E6FF93970202011193D2E70115
:100530009397060222EC26E84AE44EE013D4E70142
:10054000368E014F814F8543854EA10293170F02CE
:1005500013D7E7012A970328070063FAD308930704
:100560004700B304570083A807009107468363D36D
:10057000080142831B080300E39797FE1303000062
:10058000B30987001A8981441C4385481107BB873A
:1005900007419BD7374063C40700BB98FE00232068
:1005A0001901BB8498001109E31037FF7A8783286B
:1005B000030013180702135808029B978800BB8793
:1005C0001741BBD797022E98052711032300F80087
:1005D000E31FC7FD852F3B8FE6013B8EC601E31766
:1005E000F6F76264C2642269826905618280D9F685
:1005F000852F3B8FE6013B8EC601E319F6F5D5B793
:100600008280411106E4EFF03FA885480548B757BE
:1006100000009387074021479706000093868602D3
:100620002146A145170500001305C505EFF05FBA87
:100630007300501073005010E5BF00000000000070
:1006400001000000000000000001000000000000A8
:100650000000010000000000000000010000000098
:100660000000000001000000000000000001000088
:100670000000000000000100000000000000000178
:100680000102030405060708010203040506070822
:100690000102030405060708010203040506070812
:1006A0000102030405060708010203040506070802
:1006B00001020304050607080102030405060708F2
:04000005FFFF0000F9
:00000001FF
